:020000040800F2
:10000000200C002095010008990100089B010008C0
:100010009D0100089F010008A101000800000000E8
:10002000000000000000000000000000A301000824
:10003000A501000800000000A7010008A9010008B0
:10004000AB010008AB010008AB010008AB010008E0
:10005000AB010008AB010008AB010008AB010008D0
:10006000AB010008AB010008AB010008AB010008C0
:10007000AB010008AB010008AB010008AB010008B0
:10008000AB010008AB010008AB010008AB010008A0
:10009000AB010008AB010008AB010008411F0008DC
:1000A000AB01000851250008AB010008AB010008B6
:1000B00099250008AB010008CD1E0008AB0100081F
:1000C000AB010008AB010008AB010008AB01000860
:1000D000AB010008AB010008AB0100089324000845
:1000E0009B1F0008AB010008AB01000800F002F8FC
:1000F00000F03AF80AA090E8000C82448344AAF188
:100100000107DA4501D100F02FF8AFF2090EBAE885
:100110000F0013F0010F18BFFB1A43F0010318473B
:10012000084A0000284A0000103A24BF78C878C165
:10013000FAD8520724BF30C830C144BF04680C60ED
:10014000704700000023002400250026103A28BF35
:1001500078C1FBD8520728BF30C148BF0B60704739
:100160001FB51FBD10B510BD02F0D9FE1146FFF737
:10017000F7FF00F02BF802F0F7FE03B4FFF7F2FFF1
:1001800003BC00F059FA000030BF72B662B680F3CB
:100190000888704708480047FEE7FEE7FEE7FEE7ED
:1001A000FEE7FEE7FEE7FEE7FEE7FEE70348044959
:1001B000044A054B70470000ED00000820060020AF
:1001C000200C00202008002020080020092000F03A
:1001D000DAF9482000F07AF8022000F0BFF9012097
:1001E00000F0BCF94FF47A7000F0A8F84FF47A7080
:1001F00000F0A4F801F022F801F07EFE002141F6A3
:100200001F4001F01BFD01F0CFFD01F0FBFB01F0F1
:100210001DFB41F61F41092001F0AEFC41F61F41D4
:10022000012001F0D2FC4FF4FA31482000F01EFA10
:1002300001F0FAFE39E0042001F02BFE00B21B4968
:100240000880084600881A490988401A19494880D8
:100250000F21032001F067FC00B21749088008460F
:10026000008816490988401A124988801348008876
:10027000088101F09AFB124908600E48C08800B25C
:100280001049086002F063FA0D48006802F0B5FA00
:1002900018B90C48006802F041FA0B48007820B900
:1002A00001200949087002F007FDC4E7040000209E
:1002B000060000209C0000201000002012000020FA
:1002C0000C00002008000020020000204FF0E02178
:1002D000096921F004014FF0E0221161C21700EB1F
:1002E0005272C2F3C702234B1A701946097801EB08
:1002F0004102C2EBC1114FF6FF7202EAC1011E4A70
:100300001180704701461B4A12784A434FF0E023A0
:100310005A6100229A6101221A6100BF4FF0E02267
:10032000106900F001021AB100F48032002AF5D001
:1003300000224FF0E0231A619A61704701460E4A8D
:1003400012884A434FF0E0235A6100229A61012249
:100350001A6100BF4FF0E022106900F001021AB1EB
:1003600000F48032002AF5D000224FF0E0231A6119
:100370009A6170473200002034000020A34A0A40EE
:100380000243A34B1A6070470146072323EA010288
:1003900012029F4B1B1D18684FF6FF0318409D4B20
:1003A000184310439A4B1B1D186070472DE9F0410C
:1003B0000746884614461D462846FFF7E5FFC5F167
:1003C000040007FA00F60F20284100EA080006435F
:1003D00006F00F06E21704EBD2625211920002F10E
:1003E000E022D2F800212146E31704EBD3635B112E
:1003F000A4EB431C012303FA0CF31A432046E31732
:1004000004EBD3635B119B0003F1E023C3F80021ED
:100410008148005D40EA06107F490855BDE8F0813B
:1004200070B504460B46CE1701EB9676C6F38700EF
:10043000CE1701EB9676B610A1EB8606B606350E02
:10044000764B9B6943F00103744EB3614FEAB633B8
:1004500053F820300F26AE40B343714E46F820309B
:10046000334653F8203004FA05F61E436C4B43F82C
:1004700020606C4B1B6801268E403343694E33600D
:1004800002F0010343B1674B0C331B6801268E4019
:100490003343644E0C36336002F0020343B1614BC8
:1004A00008331E6801238B401E435E4B08331E60D9
:1004B00070BD00B5002059490861C860142048612A
:1004C00000208861C8610846006840F001000860AB
:1004D000084640685449084050494860084600684A
:1004E000524908404D4908600846006820F48020C1
:1004F00008600846406820F4FE00486000208860DC
:1005000000214FF00060FFF739FF00BD10B54048F3
:100510000830006840F004003D49083108603F4859
:10052000C06940F080503D49C8614148406840F48E
:1005300080703F4948600846006840F00400086049
:100540000846006840F002000860FFF71DFE10BD7D
:100550003048001D2E49091D0860704701464906B4
:100560002E4A926942F001022C4B9A612C4A083AB9
:10057000526822F0E0622A4B083B5A601A465268E1
:100580000A435A60704730B504460025FFF791FFD3
:100590002248006840F480302049086000BF1F48AE
:1005A0000068400C0028FAD04FF480601B49486076
:1005B000A01EC4B20846406840EA8440486008462D
:1005C000406840F4803048601A48006840F03200CB
:1005D000184908601148006840F080700F490860B1
:1005E00000BF0E480068400E0028FAD00B48406853
:1005F00040F002000949486005E008484068C0F33F
:10060000870505F00305022DF7D130BD80FFFF1FE0
:1006100008ED00E00000FA0500E400E000100240F0
:1006200008000140000401400000FFF8FFFFF6FE53
:100630000070004000200240014600BF704700BF2C
:10064000384A128802F04002002AF9D0C2B2354B73
:100650001B1D1A8070473349091D088000BF3149AE
:10066000098801F040010029F9D070472DE9F05FB9
:1006700005460E46300103F0C5FA81462A4905FBBE
:1006800001F003F0BFFA8246494603F071F90746CC
:10069000384603F07FFA84B2204603F0B3FA83466B
:1006A000394603F08FFB82464FF0834103F0BEFAD8
:1006B000814603F06FFA80464FF6FF7000EA04149B
:1006C00004EB080084B21948806940F0040017491F
:1006D00088610846806940F4804088611448006859
:1006E00020F47F60124908600846006840F40B60FF
:1006F00008600E48C06840F480400C49C860084655
:10070000C06820F48040C860064808300480001D9E
:10071000008842F20C01084302490C310880BDE810
:10072000F09F00000038014040420F0000100240DE
:100730000408014010B50446CC48844208D1012188
:10074000042000F02DFB0021042000F029FB46E0EE
:10075000C748844208D10121082000F021FB002174
:10076000082000F01DFB3AE0C248844208D1012174
:10077000102000F015FB0021102000F011FB2EE0EE
:10078000BD48844208D10121202000F009FB00214E
:10079000202000F005FB22E0B848844208D1012166
:1007A000402000F0FDFA0021402000F0F9FA16E0A8
:1007B000B348844208D10121802000F0F1FA0021E1
:1007C000802000F0EDFA0AE0AE48844207D1012112
:1007D000801500F0E5FA0021A01500F0E1FA10BD47
:1007E00010B50121084600F0DBFA0021012000F0DD
:1007F000D7FA10BD2DE9F041024600250026002061
:1008000000230024002791F803C00CF00F0591F895
:1008100003C00CF0100CBCF1000F03D091F802C023
:100820004CEA050591F800C0BCF1000F31D0146806
:1008300000202BE04FF0010C0CFA00F3B1F800C0DF
:100840000CEA03069E4220D183004FF00F0C0CFAF5
:1008500003F7BC4305FA03FC4CEA040491F803C017
:10086000BCF1280F06D14FF0010C0CFA00FCC2F8C5
:1008700014C00AE091F803C0BCF1480F05D14FF055
:10088000010C0CFA00FCC2F810C0401C0828D1D39F
:100890001460B1F800C0BCF1FF0F34DD54680020D3
:1008A0002EE000F1080C4FF0010808FA0CF3B1F843
:1008B00000C00CEA03069E4221D183004FF00F0CCA
:1008C0000CFA03F7BC4305FA03FC4CEA040491F864
:1008D00003C0BCF1280F05D100F1080C08FA0CF890
:1008E000C2F8148091F803C0BCF1480F07D100F1A1
:1008F000080C4FF0010808FA0CF8C2F81080401CF0
:100900000828CED35460BDE8F0814FF6FF71018016
:10091000022181700421C170704702460020936853
:100920000B400BB1012000E00020704701468868B1
:1009300080B2704702460020D3680B400BB1012003
:1009400000E0002070470146C86880B2704701612E
:100950007047416170470AB1016100E04161704731
:10096000C16070474FF480320A43826181618261C5
:1009700082698269704702460020434B18684FF62F
:100980008073184040EA021008433F4B18607047DC
:100990003E49C8617047F0B50A4600230024002193
:1009A000002500F00046B6F1004F02D1364EF16945
:1009B00001E0354E7168C0F3034583B200F4401680
:1009C000B6F5401F08D121F070612F4E766826F0F1
:1009D00070662D4F7E6012E000F48016B6F5801F21
:1009E00006D1032606FA05F4A14341F0706106E042
:1009F000460D360103FA06F6B14341F0706122B1AB
:100A0000460D360103FA06F6314300F00046B6F112
:100A1000004F02D11C4EF16101E01B4E7160F0BD30
:100A200030B500228B071C0F0F2303FA04F2164B7C
:100A300008338C1053F824309343134C08348D1032
:100A400044F8253023468C1053F824308C07240FAB
:100A500000FA04F423430C4C08348D1044F825307C
:100A600030BD0A49DC3108607047000000080140D1
:100A7000000C01400010014000140140001801402A
:100A8000001C014000200140000001400000204205
:100A9000DF48006840F00100DD4908600846406812
:100AA000DC490840DA49486008460068DA490840ED
:100AB000D74908600846006820F48020086008468E
:100AC000406820F4FE0048604FF41F0088607047C3
:100AD000CF49096821F48031CD4A11601146096877
:100AE00021F480211160B0F5803F03D0B0F5802F54
:100AF0000ED106E0C649096841F48031C44A11604C
:100B000007E0C349096841F4A021C14A116000E02F
:100B100000BF00BF704710B501460022002300202F
:100B20004A11012A02D1BA4C236806E0022A02D1F6
:100B3000B74C236A01E0B64C636A01F01F0201243E
:100B400094401C400CB1012000E0002010BD38B5DD
:100B5000002000900024002500BF3120FFF7DBFFBC
:100B600005460098401C00900098B0F5A06F01D099
:100B7000002DF2D03120FFF7CEFF08B1012400E0B4
:100B80000024204638BD01460020A14A106820F00C
:100B9000F80040EAC10010607047A0490860704743
:100BA000024600209A4B586820F47C1042EA010368
:100BB0001843974B5860704798490866704701463C
:100BC0000020934A506820F00300084350607047AB
:100BD0008F48406800F00C007047014600208C4AA6
:100BE000506820F0F0000843506070470146002034
:100BF000874A506820F4E06008435060704701461F
:100C00000020834A506820F4605040EAC1005060E0
:100C1000704729B17E4A527A02437D4B5A7204E0F2
:100C20007B4A527A82437A4B5A7270477B49D83159
:100C30000860704701460020754A506820F4404023
:100C40000843506070470021714A20321170704A89
:100C500082F82010012802D004280AD104E00121E2
:100C60006B4A2032117005E00521694A203211706B
:100C700000E000BF00BF70476949086070476449E1
:100C8000096A0143624A1162704765494439086044
:100C9000704730B500210022002400235C4D6D68B0
:100CA00005F00C0121B1042905D0082923D105E064
:100CB0005C4D056022E05B4D05601FE0544D6D68A2
:100CC00005F47012524D6D6805F48034022505EB71
:100CD00092421CB9544D554305600BE04C4D6D6874
:100CE00005F400351DB1504D5543056002E04D4DF2
:100CF0005543056002E04B4D056000BF00BF444D09
:100D00006D6805F0F0010909484D6B5C0568DD4030
:100D100045603F4D6D6805F4E061090A434D6B5C29
:100D20004568DD4085603A4D6D6805F46051C90A3B
:100D30003E4D6B5C4568DD40C560354D6D6805F422
:100D40004041890B3A4D6B5CC568B5FBF3F5056115
:100D500030BD29B12E4A526902432D4B5A6104E03D
:100D60002B4A526982432A4B5A61704729B1284A5B
:100D700092690243264B9A6104E0254A92698243B4
:100D8000234B9A61704729B1214AD2690243204B13
:100D9000DA6104E01E4AD26982431D4BDA61704772
:100DA00029B11B4AD2680243194BDA6004E0184AA1
:100DB000D2688243164BDA60704729B1144A12692F
:100DC0000243134B1A6104E0114A12698243104B2B
:100DD0001A61704712494039086070470F49C8646A
:100DE00070470B49C87170470948406A40F08070ED
:100DF00007494862704701460020054A92680A4048
:100E00000AB1012000E00020704701498872704754
:100E1000001002400000FFF8FFFFF6FE0000424213
:100E20008004424200127A0000093D003600002092
:100E30004600002010B50446FB48844209D1012138
:100E40008803FFF7ADFF00214FF48040FFF7A8FFB4
:100E500032E0F648844209D101214804FFF7ADFF92
:100E600000214FF40030FFF7A8FF25E0F04884424E
:100E700009D101218804FFF7A0FF00214FF4802051
:100E8000FFF79BFF18E0EB48844209D10121C80419
:100E9000FFF793FF00214FF40020FFF78EFF0BE0D8
:100EA000E548844208D101210805FFF786FF0021AB
:100EB0004FF48010FFF781FF10BD2DE9F04786B099
:100EC00005460E460024A24600BFA1460027B08971
:100ED00000B100BF2F462C8A4CF6FF700440F0880A
:100EE00004432C82AC894EF6F3100440B08831895B
:100EF0000843718908430443AC81AC8A4FF6FF4034
:100F00000440B0890443AC8201A8FFF7C2FEC64882
:100F1000874202D1DDF810A001E0DDF80CA0A8891D
:100F200000F4004040B10AEBCA0000EB0A1031683F
:100F30004900B0FBF1F807E00AEBCA0000EB0A1029
:100F400031688900B0FBF1F86420B8FBF0F00401CF
:100F50002009642101FB1089A88900F4004040B1F8
:100F6000322000EBC900B0FBF1F000F007000443B1
:100F700008E0322000EB09106421B0FBF1F000F032
:100F80000F0004432C8106B0BDE8F0874FF41651E2
:100F9000016000218180C18001810C2141810021FB
:100FA0008181704710B502460020108A4FF2FF037E
:100FB00018400B884C8823438C882343CC882343D8
:100FC0001843108210BD0021018041808180C180C2
:100FD000704721B1828942F40052828104E0828903
:100FE0004DF6FF731A4082817047F0B50346002426
:100FF00000260025002040F66A17B94200D100BF44
:101000001846C1F3421401F01F06012707FA06F53E
:10101000012C01D10C3004E0022C01D1103000E091
:1010200014301AB107682F43076002E00768AF4326
:101030000760F0BD1AB1838A0B43838202E0838A82
:101040008B4383827047028A4FF6F0731A40028204
:10105000028A0A430282704782894FF2FF731A4064
:10106000828182890A438281704721B1828942F05C
:101070000202828104E082894FF6FD731A40828168
:101080007047028A4FF6DF731A400282028A0A43CF
:101090000282704721B1028A42F48042028204E057
:1010A000028A4BF6FF731A4002827047C1F30802AE
:1010B0008280704701468888C0F3080070478189A4
:1010C00041F0010181817047028BD2B20283028B11
:1010D00042EA012202837047028B02F47F420283BC
:1010E000028B0A430283704721B1828A42F02002B8
:1010F000828204E0828A4FF6DF731A408282704750
:1011000021B1828A42F01002828204E0828A4FF684
:10111000EF731A408282704721B1828A42F008023E
:10112000828204E0828A4FF6F7731A408282704707
:1011300021B1828942F40042828103E08289C2F3B4
:101140000E028281704721B1828A42F4006282825B
:1011500004E0828A4FF2FF731A4082827047828ACB
:101160004FF6FB731A408282828A0A43828270475A
:1011700021B1828A42F00202828204E0828A4FF622
:10118000FD731A408282704702460020B1F5007F4D
:1011900000D100BF13880B400BB1012000E00020FC
:1011A000704701F40072B2F5007F00D100BFCA435E
:1011B0000280704770B502460024002300250020FD
:1011C00040F66A16B14200D100BFC1F3421501F0EA
:1011D0001F03012606FA03F3012D02D1968933403D
:1011E00006E0022D02D1168A334001E0968A334090
:1011F0000C12012606FA04F41688344013B10CB11F
:10120000012000E0002070BD10B50022002340F650
:101210006A14A14200D100BF0A1201249440A3B273
:10122000DC43048010BD0000003801400044004051
:1012300000480040004C00400050004019488069C0
:1012400040F00400174988611748006820F47020B6
:10125000154908600846006840F4403008601248AC
:101260000C30006840F010000F490C31086000207D
:101270000E490860704718B900210C4A11600FE050
:101280000B490968491C0A4A1160814208D1074983
:101290000968C943074AC2F890110021044A116045
:1012A00070470000001002400008014090012142F8
:1012B0004C000020000021424948806940F00400B1
:1012C000474988614748006820F47F204549086005
:1012D0000846006840F408200860081F006842497A
:1012E00008404049091F0860084600683F49084314
:1012F0003C49091F08603B480830006840F0040082
:101300003849083108600846006840F080000860ED
:101310000846006840F0200008600846006840F475
:10132000C0500860704701463148006828B931480C
:101330000088401C2F4A108002E000202D4A1080B7
:101340002B48006828B92C48007810B901202A4A97
:1013500010702A480078B0B927480078012807D1D2
:1013600027480078401C264A10700120234A10703C
:1013700023480078022806D10020214A1070214A13
:101380001080022070471A480068012804D100200C
:10139000194A1070194A10701948007801281CD198
:1013A00018480088401C174A108010460088884260
:1013B0000ADD10480088884206DA0020104A1070C2
:1013C000104A10800120DDE70A480088884204DDC9
:1013D00000200B4A10700B4A10800020D2E700005A
:1013E0000010024004080140FFF00F0F0008808049
:1013F000080121425600002050000020510000202A
:10140000520000205400002010B50A461AB10123F2
:10141000FE4C236002E00023FC4C2360002114E01A
:101420000023FB4C236000F080031BB10123241F29
:10143000236003E00023F64C241F23600123F44CB7
:1014400023604306180E4B1CD9B20829E8DB0123A0
:10145000EE4C236010BD30B500241CE004F1B00157
:10146000C8B20021FFF7D0FF00210846FFF7CCFFEC
:1014700000211020FFF7C8FF002508E0E54901EB37
:10148000C501085D0121FFF7BFFF681CC5B2802DB3
:10149000F4DB601CC4B2082CE0DB30BD00B50021D9
:1014A0008D20FFF7B1FF00211420FFF7ADFF0021D1
:1014B000AF20FFF7A9FF00BD00B500218D20FFF789
:1014C000A3FF00211020FFF79FFF0021AE20FFF7B0
:1014D0009BFF00BD30B500240CE0002506E0002095
:1014E000CC4901EBC5010855681CC5B2802DF6DB5F
:1014F000601CC4B2082CF0DBFFF7ADFF30BDF0B5C7
:10150000144600267F2801DC3F2900DDF0BD0B4694
:10151000CF1701EB5777FF10C7F10707FAB2CF17C4
:1015200001EB5777FF10A1EBC707FDB2C5F1070725
:101530000123BB40DEB24CB1B64B03EBC0039B5C56
:101540003343B44F07EBC007BB5408E0B14B03EB88
:10155000C0039B5CB343AF4F07EBC007BB5400BF56
:10156000D4E72DE9F04F80460C4615461E46A346AB
:10157000A5F12000C5B200273EE00C2E07D105EBF7
:101580004500A54901EB800010F8079004E0A3484E
:1015900000EB051010F807904FF0000A26E009F064
:1015A000800028B121464046099AFFF7A8FF09E0CC
:1015B000099808B9012000E0002002462146404673
:1015C000FFF79DFF4FEA49604FEA1069601CC4B203
:1015D000A4EB0B00B04205D15C4608F1010000F01D
:1015E000FF0806E00AF1010000F0FF0ABAF1080F57
:1015F000D5DB00BF781CC7B2B742BEDBBDE8F08FB9
:1016000010B50246012000E050430B1EA1F1010479
:10161000E1B2F9D110BD2DE9FF4F81B007469146E7
:101620001E460E9D4FF0000A002439E0301B401E7C
:10163000C1B20A20FFF7E4FFB9FBF0F00A21B0FBCA
:10164000F1F201FB1208BAF1000F16D1701EA04290
:1016500013DDB8F1000F0ED10120AB4605EBDB71B5
:10166000491001FB04710090C8B22B462022029958
:10167000FFF777FF12E04FF0010A0120AB4605EBC0
:10168000DB71491001FB04710090C8B208F1300110
:10169000CAB22B460299FFF764FF00BF601CC4B2B8
:1016A000B442C3DB05B0BDE8F08F78B505460E4601
:1016B000144618E07A2D03DD002506F11000C6B2AD
:1016C0003A2E04DD002005460646FFF703FF012001
:1016D000009022780C2331462846FFF742FF05F19F
:1016E0000800C5B2641C20780028E3D178BD10B58D
:1016F0004B48806940F008004949886149480068C2
:101700004949084047490860084600684749084376
:10171000444908604248806940F0040040498861BB
:101720004348006820F0704041490860084600685E
:1017300040F00050086000203549083908606420F6
:10174000FEF7FCFD01203B49C1F88C010021AE20D1
:10175000FFF75AFE0021D520FFF756FE002150204A
:10176000FFF752FE0021A820FFF74EFE00213F2088
:10177000FFF74AFE0021D320FFF746FE002108466E
:10178000FFF742FE00214020FFF73EFE00218D20A2
:10179000FFF73AFE00211420FFF736FE002120203B
:1017A000FFF732FE00210220FFF72EFE0021A120CC
:1017B000FFF72AFE0021C020FFF726FE0021DA20D5
:1017C000FFF722FE00211220FFF71EFE00218120DC
:1017D000FFF71AFE0021EF20FFF716FE0021D920A7
:1017E000FFF712FE0021F120FFF70EFE0021DB20A3
:1017F000FFF70AFE00213020FFF706FE0021A4209B
:10180000FFF702FE0021A62016E00000BC012142E5
:1018100094812142C4000020C23E000836430008E3
:1018200000100240000C0140FF0F00FF00202200CA
:101830000408014000802142FFF7E6FD0021AF20AF
:10184000FFF7E2FDFFF746FE10BD0000C1488069CA
:1018500040F00400BF498861BF48006820F0706014
:10186000BD490860BB48806940F40070B94988618F
:101870000846C06840F40070C8600846C06820F49C
:101880000070C8600846406820F440404860084640
:10189000406840F400404860B0480068B0490840E3
:1018A000AE4908600846006808600846006820F4F1
:1018B00080700860081D006820F00200091D0860A3
:1018C0000846006820F4602008600846006840F47C
:1018D000602008600846006840F4801008600846F0
:1018E000006820F4006008609C482830006820F4FC
:1018F00070009A4928310860084600680020086096
:1019000096480C30006820F0706094490C310860F3
:101910000846006840F4E01008609048001D006828
:1019200040F001008D49091D08600846006840F03C
:101930000800086000BF8948001D006800F008002A
:101940000028F8D18548001D006840F00400834954
:10195000091D086000BF8148001D006800F00400F8
:101960000028F8D1704701467C483030006820F0EC
:101970001F007A4A30321060104600680843106039
:101980007648001D006840F48000744A121D106003
:1019900000BF7248001F006800F002000028F8D065
:1019A0006E484830006880B270472DE9F04F87B02C
:1019B0000620FFF7D8FF019001F045FD80464FF06B
:1019C0006632684B01F052FD0022674BCDE90201FF
:1019D00001F04CFD0022654BCDE9040101F046FD0C
:1019E00006460022624B01F0A7FB04460022614B31
:1019F00001F0A2FB824601F0F7FC0690069807B0C2
:101A0000BDE8F08F10B55348806940F0040051499B
:101A100088615148006820F470404F4908604D4883
:101A2000806940F400704B4988610846C06840F402
:101A30000070C8600846C06820F40070C86008469E
:101A4000406820F4404048600846406840F4004048
:101A500048604248006842490840404908600846DA
:101A6000006808600846006820F480700860081D5F
:101A7000006820F00200091D08600846006820F494
:101A8000602008600846006840F46020086008464E
:101A9000006840F4801008600846006820F4006088
:101AA00008602E482830006820F470002B49283147
:101AB0000860084600680020086028480C3000686C
:101AC00020F4704025490C3108600846006840F455
:101AD000606008602148001D006840F001001F4957
:101AE000091D08600846006840F00800086000BF53
:101AF0001A48001D006800F008000028F8D11748B7
:101B0000001D006840F004001449091D086000BF72
:101B10001248001D006800F004000028F8D10120E0
:101B2000FEF70CFC10BD2DE9F04107460C460025E0
:101B3000002608E03846FFF716FF0544C820FEF7E8
:101B4000E1FB701CC6B2A642F4DBB5FBF4F080B238
:101B5000BDE8F0810010024000080140042401406B
:101B6000FFFFF00066660A40000026400000594072
:101B70000000F03F0000B04070B505460C46244818
:101B8000806940F400602249886122480580001F76
:101B9000048020482038008840F001001D49203989
:101BA00008800846008840F04000088019482C381A
:101BB000008840F0010017492C39088002231922BF
:101BC00001210846FEF7F2FB70BD70B505460C46D4
:101BD0000F48C06940F001000D49C861880485853F
:101BE0000485808940F00100890488810846808945
:101BF00040F0400088810846008840F0810008805D
:101C000002231C2201210846FEF7D0FB70BD000014
:101C1000001002402C2C01402F48806940F0080041
:101C20002D4988612D48006880B22C49086008461B
:101C300000682B49084329490860704700B50346EE
:101C40000A46FFF7E9FF2448C06940F00200224934
:101C5000C8610846806940F0080088611F48001F7D
:101C6000006820F0FF001D49091F08600846006851
:101C700040F0BB0008601B480380001F0280194829
:101C80001038008840F4C0401649103908800846D2
:101C9000008840F0600008800846008840F400603A
:101CA00008800846008840F008000880081D008869
:101CB00040F48050091D08800846008840F4807078
:101CC0000880802007492C3908800846008840F0A9
:101CD0000100088000BD000000100240040C01401B
:101CE000000022222C04004010B57E48C06940F05C
:101CF00001007C49C8610846806940F004008861A1
:101D00007948006820F0FF007749086008460068BD
:101D100040F044000860C804808940F00100C90414
:101D200088810846808940F04000888102231C2277
:101D300003210120FEF73AFB00204FF08041088587
:101D40004FF6FF7088850846008820F440700880B0
:101D50000846008820F0600008800846008B40F0AC
:101D6000010008830846008B40F480700883084611
:101D7000008C20F0020008840846008C20F020002F
:101D800008840846008B40F030000883084600892C
:101D900040F00300088142F21070888480060088B9
:101DA00040F00100088010BD10B54E48C06940F0F9
:101DB00004004C49C8610846806940F00800886109
:101DC0004A48006820F07F4048490860084600689B
:101DD00040F0884008604648008840F001004449CF
:101DE00008800846008840F04000088002231E2238
:101DF00003210120FEF7DAFA00203D491C3108805A
:101E00004FF6FF70091D088039480C38008820F40F
:101E1000407037490C3908800846008820F060007F
:101E2000088033480C30008840F0010030490C3104
:101E300008800846008840F4807008802C481430E0
:101E4000008820F002002A491431088008460088E2
:101E500020F02000088026480C30008840F0300038
:101E600023490C3108802248001F008840F00300FD
:101E70001F49091F088042F210701D49183108805F
:101E80001B480C38008840F0010019490C390880C3
:101E900010BD0146022904D0032907D0042911D11D
:101EA0000BE04FF08042928C10B20DE0114A128884
:101EB00010B200220F4B1A8006E00D4A1832128829
:101EC00010B201E0002000BF00BF70470848001DAD
:101ED00000880748001D008820F001000449091D02
:101EE000088070470010024000080140000C0140CB
:101EF0000C0800402404004010B5FFF7DDF9012272
:101F000007210020FEF78CFA012205210020FEF7B0
:101F100087FA01220B210020FEF782FA01220C2110
:101F20000020FEF77DFA0223172219461846FEF715
:101F30003DFA0223282219461846FEF737FA10BD4B
:101F400070B50520FEF7FAF92D48006838B92D481C
:101F5000007808B9012000E000202A4908702848CC
:101F60000838006898B928484FF07E510568006825
:101F700001F090FC24492C4608604FF08141204636
:101F800001F0B8FD03D14FF07E501F4908602020BA
:101F90001E4908608020086070BD10B50520FEF75E
:101FA000CDF917481030006820B91948B0F9000081
:101FB0001849088012481430006817480088002823
:101FC00002DC00201449088014480088002802DC44
:101FD00000201249088012480088002802DC0020F6
:101FE0000F4908800F480088002802DC00200D49B6
:101FF00008804FF40060054908604000086010BD8B
:102000001C012142000000201C000020140401409B
:1020100010000020120000201400002016000020F4
:10202000180000201A00002010B50420E6490870AE
:10203000002081F8690000F0CBF910BD2DE9F047D0
:10204000E1480179C07801EB00201FFA80F9DE48F1
:102050008179407901EB00201FFA80F80024DA48EA
:1020600002782146641C6B30425403222146641CD2
:1020700042544FF6FF7000EA48073846F91707EB5D
:1020800011610912A7EB0121CBB22246641CCE4993
:102090006B318B54002623E009EB0601CB4A32F862
:1020A0001100C11700EB1161C1F307232146621C27
:1020B00094B2C54A6B32535409EB0601C34A32F855
:1020C0001100C11700EB11610912A0EB0121CBB285
:1020D0002146621C94B2BC4A6B325354701C86B2C7
:1020E0004645D9DB2146B8486B3000F015FA054665
:1020F0002846E91705EB1161C1F307232146621C4D
:1021000094B2B14A6B325354E91705EB11610912CD
:10211000A5EB0121CBB22146621C94B2AA4A6B32D4
:102120005354002606E0A8496B31885D00F09FF902
:10213000701C86B2A642F6DBBDE8F0872DE9F041BF
:102140000024A1480179C07801EB002085B29E48A7
:102150008179407901EB002086B29C4820F8156017
:10216000994802782146641C6B304254062221466D
:10217000641C42542846E91705EB1161C1F307239B
:102180002246641C90496B318B54E91705EB1161B1
:102190000912A5EB0121CBB22246641C8A496B319E
:1021A0008B543046F11706EB1161C1F30723224629
:1021B000641C85496B318B54F11706EB11610912D0
:1021C000A6EB0121CBB22246641C7F496B318B54B4
:1021D00021467D486B3000F09FF907463846F917D5
:1021E00007EB1161C1F307232246641C76496B316A
:1021F0008B54F91707EB11610912A7EB0121CBB240
:102200002246641C70496B318B544FF0000809E082
:102210006D496B3111F8080000F029F908F101004F
:102220001FFA80F8A045F3DBBDE8F0812DE9F0410D
:1022300065480179C07801EB002087B26248817956
:10224000407901EB00201FFA80F8002513E00820F8
:1022500000EB45015C48401C415C072000EB450257
:102260005948401C805C01EB00207919574A22F83C
:102270001100681C85B24545E9DB0024524802780C
:102280002146641C6B30425410222146641C425487
:102290006B38C2782146641C6B3042546B3802792B
:1022A0002146641C6B3042546B3842792146641CD1
:1022B0006B3042546B3882792146641C6B30425437
:1022C000214600F029F906463046F11706EB116168
:1022D000C1F307232246641C3B496B318B54F11731
:1022E00006EB11610912A6EB0121CBB22246641C58
:1022F00035496B318B54002506E033496B31485D1D
:1023000000F0B5F8681C85B2A542F6DBBDE8F081A7
:1023100070B52D4890F86A0000B970BD2A4890F851
:102320006800022806DC0020274981F8680081F84F
:102330006A00F2E7244890F86800801E81B22248C3
:10234000401C00F0E9F804461F4890F86800401E61
:102350001D49491C0A5C481E90F86800801E085CF4
:1023600002EB002085B2AC4225D1481E4078491EC0
:10237000097888421ED114488078112819D2DFE8E4
:1023800000F0090A0B0C0F1011141818181818185F
:10239000181815000DE00CE00BE0FFF74FFE08E009
:1023A00007E006E0FFF7CAFE03E002E0FFF73EFFAA
:1023B00000BF00E000BF0020034981F8680081F8F9
:1023C0006A0000BFA9E70000C40400209C000020B0
:1023D00000B585B001210820FEF7C8FC0121880462
:1023E000FEF7D1FC4FF48060ADF8100018208DF896
:1023F000130003208DF8120004A94448FEF7FAF9EF
:102400004FF40060ADF8100004208DF8130004A90B
:102410003E48FEF7EFF94FF4E13000900020ADF8B0
:102420000400ADF80600ADF80800ADF80C000C2073
:10243000ADF80A003648FEF7FDFC69463448FEF761
:102440003CFD012240F225513148FEF7CEFD01212D
:102450002F48FEF7BEFD40212D48FEF7A2FE0223C5
:10246000272200210846FDF7A1FF05B000BD10B5E9
:10247000044621462648FEF719FE00BF40212448A5
:10248000FEF782FE0028F9D040212148FEF789FEA0
:1024900010BD70B540F225511D48FEF78BFE054674
:1024A000012D30D11A48001D0088C4B2194890F897
:1024B0006A0001280BD140F225511548FEF77AFE3B
:1024C00020B140F225511248FEF79EFE70BD00205B
:1024D0001049A1F86600084690F8681090F8680066
:1024E000401C0C4A82F86800501C4454401E90F86E
:1024F0006800012802D1114681F8690040F2255197
:102500000348FEF781FE00BFE0E70000000C014039
:1025100000480040C404002070B502460C46FF2568
:10252000FF2309E012F8010B80EA05010648405C30
:1025300080EA03050548435C201EA4F10106B4B2FD
:10254000F0D143EA052070BD26490008264A00085C
:1025500010B5C848008800F00100D8B1C54800880F
:1025600020F00100C3490880C348007801280BD13E
:10257000C2480078401CC0B2C04908700F2803D17F
:1025800000200870BC490870FFF7C2FE4FF4FA70D3
:10259000FEF771FE002010BD4FF08040008A00F071
:1025A0000100A8B1B64890F8690088B1B448B0F805
:1025B0006600401CB249A1F866000846B0F8660003
:1025C000042805DB002081F86900012081F86A00F9
:1025D0004FF08040008A20F001004FF080410882D7
:1025E00070472DE9F0470546A648B0F9000001F014
:1025F000F1FA0746294601F0E5FB0446A2480168C6
:10260000204601F0E9FBA1490860A148008801F0DB
:10261000F9FA82469D480168504601F007FB804662
:102620009C480088404201F0D5FA8246214601F0DC
:10263000FDFA8146414601F0CFFB074601F08EFAD4
:102640000646914804603046BDE8F0872DE9FC4716
:1026500082469149B1F90010AAEB010001F0BAFAE3
:102660008E4908608E48006801F0E8F804468D4AFB
:102670008D4B00F0FBFE064600F084FC88490860A4
:102680008648006801F0DAF80646864A874B00F073
:10269000EDFE04460D468248006801F0CFF8804602
:1026A00022462B4600F0A0FCCDE9000100F06AFCB8
:1026B0007B4908607E4801687948006801F08CFB1E
:1026C0007C49086076480068794908607A48008843
:1026D00001F098FA064677480168304601F0A6FAFC
:1026E00004467648008801F08DFA06466C48016879
:1026F000304601F09BFA0546214601F0CBF87049BF
:1027000008600846006801F029FABDE8FC87014628
:10271000002901DA484200E00846704700B5024649
:10272000002A07DA01206749086000206649C1F8DD
:10273000B40106E000206349086001206249C1F845
:10274000B4011046FFF7E3FF6049088000BD41F681
:10275000F4205F4909684242914202DA41425C4AF0
:1027600011605B490968814201DD59490860704781
:1027700010B54FF482746420FEF7D5FD554908600A
:1027800008460068012801D1534908605148006893
:10279000022801D1504908604F480068012813D130
:1027A0003D480088001D00B23B4908804B48006846
:1027B000001D4A49086008460068A04204D1002074
:1027C000454908604549086043480068022813D11C
:1027D00031480088001F00B22F4908803F48006838
:1027E000001D3E49086008460068A04204D1002050
:1027F000394908603949086010BD0146384A1278E5
:10280000012A0AD1364B1A70012000222D4B1B1DC4
:102810001A602D4BC3F8B02100E00020194AB2F92C
:102820000020A2F548722F4BB3F900309A420CDC1D
:102830002C4AB2F90030134AB2F9002002F548726E
:10284000934202DCB1F52F7F05DA274A1278521C39
:10285000254B1A7002E00022234B1A70224A12788C
:10286000782A05D10022204B1A7001221C4B1A70C5
:1028700070470000102C01400200002001000020E1
:10288000C404002012000020680000206C0000201A
:102890001600002014000020060000208000002008
:1028A000780000209A9999999999E93F9999C93F97
:1028B000740000207C0000201A0000201800002076
:1028C00070000020B081214200802142400400407D
:1028D0000800002084000020880000208C000020D8
:1028E00000000020100000209000002038B5FEA25B
:1028F00000210846FEF7D9FE0C2003230090FC4877
:10290000028800212820FEF786FEFAA20021392045
:10291000FEF7CBFEF648008800EB800040000A215D
:1029200090FBF1F201FB12040C200123224600214E
:1029300000903D20FEF76FFEEFA200215F20FEF722
:10294000B4FEEE48006801F025F904460C2002238D
:102950002246002100906C20FEF75DFEE8A20A21CD
:102960000020FEF7A2FE0C2003230090E648028818
:102970000A212820FEF74FFEDEA20A213920FEF7A9
:1029800094FEE148008800EB800040000A2190FBA3
:10299000F1F201FB12040C200123224600903D209D
:1029A000FEF739FED4A20A215F20FEF77EFED7484B
:1029B000006801F0EFF804460C20022322460A21A9
:1029C00000906C20FEF727FED1A214210020FEF714
:1029D0006CFE0C2003230090CF480288142128208D
:1029E000FEF719FEC3A214213920FEF75EFECA4885
:1029F000008800EB800040000A2190FBF1F201FB0F
:102A000012040C2001232246142100903D20FEF7E1
:102A100002FEB9A214215F20FEF747FEBF480068FE
:102A200001F0B8F804460C2002232246142100903D
:102A30006C20FEF7F0FDBAA21E210020FEF735FE45
:102A40000C2003230090B84802881E212820FEF79E
:102A5000E2FDA8A21E213920FEF727FEB248008819
:102A600000EB800040000A2190FBF1F201FB120410
:102A70000C20012322461E2100903D20FEF7CBFDB5
:102A80009DA21E215F20FEF710FEA848006801F0FD
:102A900081F804460C20022322461E2100906C205F
:102AA000FEF7B9FD4FF07E51A148006801F022F811
:102AB00020D101200C235922002100904B20FEF749
:102AC00050FD01200C234E220A2100904B20FEF7DE
:102AD00048FD01200C234E22142100904B20FEF7CC
:102AE00040FD01200C234E221E2100904B20FEF7BA
:102AF00038FD75E04FF080418D48006800F0FAFF26
:102B000020D101200C234E22002100904B20FEF703
:102B100028FD01200C2359220A2100904B20FEF7AA
:102B200020FD01200C234E22142100904B20FEF7A3
:102B300018FD01200C234E221E2100904B20FEF791
:102B400010FD4DE07B497A48006800F0D3FF20D1AA
:102B500001200C234E22002100904B20FEF701FDA6
:102B600001200C234E220A2100904B20FEF7F9FC95
:102B700001200C235922142100904B20FEF7F1FC78
:102B800001200C234E221E2100904B20FEF7E9FC71
:102B900026E04FF081416648006800F0ABFF1FD18E
:102BA00001200C234E22002100904B20FEF7D9FC7F
:102BB00001200C234E220A2100904B20FEF7D1FC6D
:102BC00001200C234E22142100904B20FEF7C9FC5B
:102BD00001200C2359221E2100904B20FEF7C1FC3E
:102BE00055A228215020FEF760FD0C2005230090FF
:102BF0005248B0F9002028215F20FEF70CFD50A2BA
:102C000028210020FEF751FD3AA228212920FEF7B5
:102C10004CFD4DA228213F20FEF747FD4B480068A0
:102C2000642190FBF1F40C2002232246282100901D
:102C30001C20FEF7F0FC45480068642190FBF1F28F
:102C400001FB12040C20022322462821009033208D
:102C5000FEF7E1FC3D480068642190FBF1F201FBC6
:102C600012000A2807DA0C200223002228210090F3
:102C70002D20FEF7D0FC36A232215020FEF715FDA4
:102C80000C20052300903348B0F9002032215F204A
:102C9000FEF7C1FC30A232210020FEF706FD0C2019
:102CA000042300902E48B0F9002032211E20FEF7A8
:102CB000B2FCFEF7D0FB38BD10B52948B0F90000D2
:102CC00000F088FF0446012100F088F82148B0F99F
:102CD000000000F07FFF0446022100F07FF803218E
:102CE000204800F07BF83FE0422D4B5000000000F0
:102CF000140000202E000000413A000020000020B7
:102D0000422D4B440000000016000020240000204B
:102D1000502D4B500000000018000020280000201B
:102D2000502D4B44000000001A0000202C00002011
:102D30001C00002000004040543A00000600002023
:102D4000564F4C3A00000000560000000C000020D6
:102D5000503A0000040000204144433A00000000C3
:102D60001000002000007A45032000F086F810498A
:102D7000087000200F49087012E000BF0E4800885C
:102D800000F040000028F9D00C480A490978405C5E
:102D90000949091D088007480078401C054908704A
:102DA00004480078024909788842E6DB10BD00003B
:102DB0009600002094000020003801409405002077
:102DC00030B503461C788C545D78541C0D559D78A5
:102DD000941C0D55DD78D41C0D5530BD13B50C4633
:102DE0000A2C00DC04B91CBD0B2C43D2DFE804F034
:102DF00042060C12181E242A30363C000122444997
:102E00006846FFF7DDFF35E0052241496846FFF7D8
:102E1000D7FF2FE009223E496846FFF7D1FF29E09E
:102E20000D223B496846FFF7CBFF23E011223849CA
:102E30006846FFF7C5FF1DE0152235496846FFF7D4
:102E4000BFFF17E0192232496846FFF7B9FF11E0CA
:102E50001D222F496846FFF7B3FF0BE021222C49C2
:102E60006846FFF7ADFF05E0252229496846FFF7D0
:102E7000A7FF00BF00BF00BFB5E701460A2900DC7D
:102E800009B9002070472420214A10700B293CD238
:102E9000DFE801F03B060B10151A1F24292F35001F
:102EA00005201B4A50710620ECE70920184A507291
:102EB0000A20E7E70D20164A50730E20E2E71120A2
:102EC000134A50741220DDE71520114A5075162060
:102ED000D8E719200E4A50761A20D3E71D200C4A55
:102EE00050771E20CEE72120094A82F821002220B7
:102EF000C8E72520064A82F825002620C2E72920B7
:102F0000034A82F829002A20BCE70020BAE7000023
:102F100094050020704770477047704770477546AA
:102F200000F02CF8AE4605006946534620F0070035
:102F3000854618B020B5FDF739F9BDE820404FF0BF
:102F400000064FF000074FF000084FF0000B21F093
:102F50000701AC46ACE8C009ACE8C009ACE8C00960
:102F6000ACE8C0098D46704710B50446AFF3008049
:102F70002046BDE81040FDF700B90000004870474A
:102F8000C005002021F00042A2F16052B2F5801F7E
:102F900001F0004328BFD2F17F6C0BD95FEA001C1F
:102FA00043EAC20242EB507018BF704728BF20F0BE
:102FB00001007047B2F5801FBCBF184670474FEA4A
:102FC000410C1CF5001F02D2084600F0F6BE70B599
:102FD00000F0F6FA00000089FFF7F6BF4FF000405E
:102FE000A0F580007047000010B591EA030F48BFBC
:102FF00083F0004300F14083841A71EB030C05D287
:10300000121943EB0C03001B61EB0C01DFF824E108
:103010004FEA1154A4EB135C1EEA430F18BF9EEA5B
:10302000445F73D023EA0E03DCF1200E21EA045141
:1030300043F4801332D322FA0CFE10EB0E0023FA75
:103040000CFE41EB0E01CCF1200E03FA0EFE10EB4C
:103050000E0051F10001B1F5801FCCF1200E32D2EB
:1030600001EB045112FA0EF2BDE8104058BF704750
:10307000401C38BF5FEA420218BF7047002814BFE7
:1030800020F0010041F100014FEA410313F5001F58
:1030900038BF7047A1F1C04100F0E0BA012A43EB0C
:1030A0000302ACF1200CDCF11F0E32BF4FF0000E1A
:1030B00023FA0CF310EB030041EB0451B4EB115F66
:1030C000D0D0A1EB045101F5801149085FEA30002E
:1030D00001EB04510ED350F1000038BF12FA0EFE7E
:1030E00008D1BDE81040C9E7401C38BF5FEA420282
:1030F000CAD1C3E7BDE810404FEA410313F5001FF2
:1031000038BF7047A1F1C04100F0A8BA9EEA445F01
:1031100008D011EA5E0FBDE8104004BF01F0004185
:1031200000207047BDE8104070B500F049FA00BFBC
:1031300064FBBE3E0000E0FF2DE9C04130B4DFF883
:10314000A0C23CEA111418BF3CEA131400F0EC8052
:1031500081EA03051CEA111444EAD57418BF1CEA7D
:10316000131500F0C780A4EB05044FF0004545EAB5
:10317000C12145EAC32341EA505143EA525304F1C5
:103180007F74994204F500344FEAC0204FEAC2220E
:1031900008BF904200F09C804FEA13650FF2401682
:1031A000765D4FEA134506FB05F7C7F1807706FB0E
:1031B00007F74FEAD737A7FB03687642C8F5803890
:1031C000A7FB06CE38BFA8F1010807FB08E64FF0C1
:1031D000000EA6FB028CE6FB03CEDCF1000CCEF168
:1031E000004E38BFAEF1010EA6FB0C584FF00007A1
:1031F0004FF00005E6FB0E87A1FB08C6A0FB07CE3B
:1032000016EB0E0645F10005E1FB076515F1E04EF2
:103210007EBFA4F580345FEA46066D4116F1800753
:1032200045F100054FEA17274FEA066647EA0567AA
:10323000A6F1DE46B6F1805F4FEA15251FD9384664
:1032400024F0010C05EBC471BCF1FE6F01EB0C1115
:1032500002D8F0BCBDE8008124425CBF01F5801EAD
:103260009EEAC47F02D4F0BCBDE80081244238D479
:10327000F0BCA1F1C041BDE8004100F0EFB94FEA58
:10328000D22242EA43524FEAD323A7FB02864FEAF7
:10329000D02040EA415007FB03661EEA0E0F4FEABA
:1032A000D12105FB026658BFA6EB0056B6EB0056CF
:1032B0004FEA520E4EEAC37E18EB0E0E56EB530E3B
:1032C000BDD518EB02085E417F1C55F10005B6E73D
:1032D0004FF480154FF000074FF000064FF0000844
:1032E000ADE7F0BC4FF0000001F1C04101F000413A
:1032F000BDE8008111EA0C1F0CEA131500D00CE0A8
:1033000013EA0C1F00F025804FF00000F0BC81EAAA
:10331000030101F00041BDE80081F0BCBDE80041BF
:1033200081EA030100F09AB9F0BCBDE8004170B534
:1033300000F046F9097EFC3E00F007B881EA03017F
:103340004FF0000001F00041704781EA030100F0F6
:1033500085B9F0BCBDE800414FF00000214970473D
:10336000FFFDFBF9F7F5F4F2F0EEEDEBE9E8E6E44A
:10337000E3E1E0DEDDDBDAD8D7D5D4D3D1D0CFCDD1
:10338000CCCBCAC8C7C6C5C4C2C1C0BFBEBDBCBB0A
:10339000BAB9B8B7B6B5B4B3B2B1B0AFAEADACAB05
:1033A000AAA9A8A8A7A6A5A4A3A3A2A1A09F9F9EDF
:1033B0009D9C9C9B9A999998979796959594939391
:1033C000929191908F8F8E8E8D8C8C8B8B8A898928
:1033D00088888787868585848483838282818180AB
:1033E0000000FF070000F87F4FEA41034FEA535304
:1033F000A3F58063D3F11E03C8BFD3F1210C0CDD0C
:103400004FF0004242EAC12242EA505232FA03FC33
:103410008CEAE17CACEBE1707047102BC4BF00205C
:10342000704703F5787CBCF1FF3F04D06FF0004299
:1034300082EA2100704770B500F0C2F849922480FA
:1034400000207047F2E7B0FA80F310FA03F10AD0D7
:10345000C3F11D0303F580634FEA41504FEA035265
:1034600002EBD12170474FF000007047DFF848C1F0
:1034700070B51CEA111E1EBF1CEA13159EEA0C0F44
:1034800095EA0C0F00F06F8081EA030423EA4C13E5
:103490004EEAD47E21EA4C1141F4801143F48013AA
:1034A000AE44A1FB024CA0FB0365AEF17F7E361952
:1034B00055EB0C05A1FB034C4CF10003A0FB021CD7
:1034C00016EB0C06654153F10003094218BF46F0A4
:1034D000010613F4007F0BD14FEA03314FEA0530A8
:1034E000340341EA155140EA16506FF003020AE036
:1034F0004FEAC3214FEAC520F40241EA555140EAA0
:1035000056506FF0020202EB2E4201EB025585EAA3
:10351000CE710AD05FEA440C18BF24F0004450F189
:10352000000041F1000120EAD47040F2FE7C6245C7
:1035300000D270BDA84214BF4FF080444FF0404409
:10354000002E08BF0024BEF1806FA8BFA1F1C041CA
:10355000BDE8704080F282804FF0000001F1C04170
:1035600001F0004170479EEA0C0F0CEA131518BFDA
:1035700095EA0C0F06D04FF0000081EA030E0EF022
:10358000004170BD00F01CF88900013E00F007B852
:1035900000F009B84FEA430C5FEA5C5C08D081EAAE
:1035A000030100F05BB84FEA410C5FEA5C5CF6D1C6
:1035B0004FF00000014970470000FF070000F87F4E
:1035C0000EF1020E2EF0030E5EF8046B364205D4A7
:1035D000012A43EB030515F5001F12D8012841EB22
:1035E000010C1CF5001F0CD80ED14FEAD17C15F54B
:1035F000001F0CEB4C0C0CF1020C08BF4CEBD37C05
:1036000004E04FF0080C01E04FEAD37C0CEB4C05D2
:1036100026FA05F606F00706B6F1040C06D20EEB04
:10362000860CBDE870404CF0010C6047DFE80CF000
:10363000090B02024FF000414FF00000A1F50021FC
:1036400070BD19461046012851EB010418BFD4F58E
:10365000001484BF002001F0004170BD0808A0F5EF
:1036600000114FEA3101704710B591EA030F48BFCE
:1036700083F000433FF5C0AC841A71EB030C07D212
:1036800012198CF0004C43EB0C03001B61EB0C0196
:10369000DFF8A4E14FEA1154A4EB135C1EEA430FD8
:1036A00018BF9EEA445F00F0B08023EA6E035242E6
:1036B00021EA0451C3EB6E0338BF5B1EDCF1200E20
:1036C00025D322FA0CFE10EB0E0043FA0CFE41EB60
:1036D0000E01CCF1200E03FA0EFE10EB0E0051F19C
:1036E0000001CCF1200E29D412FA0EF201EB0451A4
:1036F000BDE8104058BF7047401C1CBFB2F1004FDE
:10370000704700280CBF491C20F00100704712EBE5
:10371000020E43EB030218BF4FF0010E4EEA4202C5
:10372000ACF1200CDCF11E0E54D943FA0CFE10EB68
:103730000E0051F1FF31CCF11E0ED5D50EF1010E68
:1037400012FA0EFE404141EB010101EB445C5FEADD
:103750005C5C10D910EBDE7001EB045138BFBEF198
:10376000004FBDE8104018BF704700280CBF491C2F
:1037700020F00100704730D24FEAD42C11F500112F
:1037800024F400641BD0B1FA81F20B3AA41AA41EEF
:10379000D2F12003914030FA03F31943904001EB3A
:1037A000CC71002C01EB0451BDE81040A8BF70475C
:1037B00001F1C0414FF0000001F000417047B0FA44
:1037C00080F310FA03F100D110BDE41A173C48054C
:1037D000C90AE4E701EB045110BD491001EB0451A3
:1037E000BDE810404FEA300002E04FF000017047A2
:1037F0004A0008BF0042F8D0B2F5001F28BF70474A
:1038000001F000414FF0000070479EEA445F07D08E
:1038100011EA5E0FBDE8104004BF00210020704790
:10382000BDE8104070B5FFF7CBFE00BF40DFF63EAD
:1038300083F00041104670470000E0FF43004FEA6C
:10384000D30C4FEA3C0C43401FBF40070CF16051C2
:1038500013F0FE4F70471CF0006F03D100200CF0F6
:10386000004170470CF0004343EA507010B540EA45
:10387000CC0000F05CFA00BF000000924FEA0001AB
:10388000FFF7ECBE4FF000414FF00000A1F5002122
:103890007047000090EA010F48BF81F0004100F13D
:1038A000A282421A3CBF801A89184FEAD0524FF0C8
:1038B0007F4C1CEA410FA2EBD15318BF9CEA026F68
:1038C00000F03B804FF0004C4CEA00204CEA012114
:1038D00021FA03FC10EB0C0C1ED202F1FF325FEA5E
:1038E0001C2040EBC25038BF70471CF07F0F4FEADE
:1038F000400C18BFBCF17F4F38BF7047C3F12003A5
:10390000994008BF20F00100BCF17F4F38BF7047DD
:10391000A0F1C04000F051BA4FEA3C00000A40EB71
:10392000C25028BF1CF0FF0F4FEA400CE6D018BF72
:10393000BCF17F4F38BF7047EAE79CEA026F05D0C1
:1039400010EA5C0F08BF00F00040704710B500F0AF
:10395000EEF900BF64FBBE3E401058BFC0F14040CE
:10396000491058BFC1F140418142EFF300807047D8
:103970004FF47F0C1CEAD0121EBF1CEAD11392EA4E
:103980000C0F93EA0C0F00F0858090EA010F48BFFE
:1039900042F4807240F4000C41F400002CF07F41AE
:1039A00020F07F4000B58142A2EB03020FF2081C19
:1039B000ACEB504EC0F100009EF800E04FEA4E0E16
:1039C00000FB0EFC38BF49004FEA2C1C02F5FA023E
:1039D0000CFB0EF34FEACE1E4FEA112C4FEAC12129
:1039E0000EEB635E42EB22420EFB0CFC4FEA1C53D3
:1039F00000FB03114FEA112C4FEA01310EFB0CFCC6
:103A00004FEADC4C00FB0C11C14228BF09184CEBFB
:103A100003335DF804EB10EB410143EBC250B2F508
:103A20007C0F38BF704729D512F0F00F1CBF00F192
:103A3000C04000F000407047008182838485868703
:103A400088898B8C8D8E8F919293959697999A9C5D
:103A50009D9FA0A2A3A5A7A8AAACAEB0B2B3B5B7CC
:103A6000B9BCBEC0C2C5C7C9CCCED1D4D7D9DCDFA2
:103A7000E2E6E9ECF0F3F7FAFE0000004FEA400C52
:103A80000CF1807CBCF17E4F28BF7047B0F1C04084
:103A900000F093B990EA010F0CEAD11348BF42F449
:103AA0008072624538BF634507D213F47F0F16D08A
:103AB00080EA010000F00040704710B500F037F9CF
:103AC000097EFC3E00F005B880EA010000F00040ED
:103AD000704780EA010000F0004000F06EB912F477
:103AE0007F0F04BF0248704780EA010000F065B90B
:103AF0000000C07F50EA010C00F113801CF5000F9C
:103B000058BFBCF5000F01D48842704707D710F5A5
:103B1000000F58BF11F5000F15D488427047894235
:103B200070471CF5000F04D5BCF5000FF7D5814296
:103B300070474FF0807C1CEB400F38BF1CEB410FEF
:103B400001D28142704710B500F0F1F8922449008B
:103B50004FF000504FF08051FFF7FEBE41000B0EBA
:103B6000D3F19E0208D950F400034FEA032323FA4D
:103B700002F048BF4042704710B500F0D8F800BFCF
:103B800049922480002070476FF0004282EA2000B2
:103B900070470000C10DD1F19E0206DB4FEA002301
:103BA00043F0004323FA02F07047004207D54FEA82
:103BB0004001B1F1FE4F02D24FF00000704710B546
:103BC00000F0B5F849922480002070476FEA200089
:103BD0007047000010F0004148BF4042B0FA80F347
:103BE00010FA03F2C3F19D030BD051EAC35101EB6C
:103BF0001220530638BF704700F1010008BF20F0C3
:103C000001007047B0FA80F310FA03F2C3F19D038C
:103C10000AD0D90501EB1220530638BF704700F1D6
:103C2000010008BF20F00100704700004FF47F0C36
:103C30001CEAD0121EBF1CEAD11392EA0C0F93EAC1
:103C40000C0F00F0478090EA010F48BF42F48072E9
:103C50004FF0004C4CEA00204CEA012102EB030239
:103C6000A0FB0113A2F50002002918BF43F00103D5
:103C70005B0028BF4FEA330342EB22425FEA132C7A
:103C80004CEBC2502EBFBCEB436FB2F57C0F7047BC
:103C90004FEA036CBCF1004F08BF20F00100B2F501
:103CA0007C0F38BF70470BD582F0FF0212F5803FC2
:103CB000C8BF704700F1C040D8BF00F00040704757
:103CC00000F5000C5FEA4C0C48BF7047B0F1C040F3
:103CD00000F073B890EA010F0CEAD11348BF42F428
:103CE0008072624538BF634504D280EA010000F06B
:103CF0000040704710B500F01AF800BF8900013E7F
:103D000000F007B800F009B85FEA410C5FEA1C6CEC
:103D100008D080EA010000F050B85FEA400C5FEA8A
:103D20001C6CF6D14FF00040A0F5800070470EF1FA
:103D3000020E2EF0030E5EF8044B244204D44FEA28
:103D40004102B2F17F4F11D84FEA4003B3F17F4FE8
:103D50000CD80ED14FEAD07CB2F17F4F0CEB4C0C5B
:103D60000CF1020C08BF4CEBD17C04E04FF0080CC6
:103D700001E04FEAD17C0CEB4C0324FA03F404F08D
:103D80000704B4F1040C06D20EEB840CBDE810401D
:103D90004CF0010C6047DFE80CF0070802024FF01E
:103DA0000040A0F5800010BD0846420018BFD2F1C7
:103DB000807288BF00F0004010BDFF2141EAD05062
:103DC000C005704780F0004090EA010F7FF569ADB3
:103DD00081F0004100F007B890EA010F48BF81F080
:103DE00000413FF55EAD421A04D882F00042A0EBDC
:103DF000020011444FEAD0524FF07F4C1CEA410FB1
:103E0000A2EBD15318BF9CEA026F4AD04FF0004C8E
:103E10004CEA00204CEA012121FA03FCB0EB0C0C27
:103E20000FD412F0FE0F36D05FEA4C001DD5001201
:103E300040EBC25038BF70471CF03F0F18BF7047AF
:103E40000BE0A2F101025FEA1C2040EBC25038BF38
:103E500070471CF07F0F18BF7047C3F120039940D3
:103E600014BF401E20F00100704780084FEA122363
:103E700008BF7047B0FA80FCA2EB0C02CCF1280C12
:103E800060FA0CF093EA122F04BF00EBC2507047A7
:103E90004FEAC3707047130A5FEADC1008BF70472F
:103EA000F6E79CEA026F04D010EA5C0F08BF00201E
:103EB000704710B5FFF73BFF40DFF63E81F0004052
:103EC000704700000000000000000000000000003B
:103ED00000003F40000000000000000030004000F3
:103EE00030004000000009000BC03D000BC03D0049
:103EF000090018C024407FE02240318000001800F3
:103F000024C01B000D803240018003801C402740EC
:103F10001C8007400040100060000000000000000E
:103F200000000000000000001F8020404020000032
:103F3000402020401F8000000000090006001F8074
:103F4000060009000000040004003F800400040093
:103F500000000010006000000000000000000400ED
:103F60000400040004000400000000000040000001
:103F7000000000000000002001C0060038004000E2
:103F800000001F802040204020401F8000000000D3
:103F900010403FC000400000000018C021402240F7
:103FA00024401840000010802040244024401B8002
:103FB000000002000D0011003FC0014000003C80E5
:103FC000244024402440238000001F8024402440BB
:103FD0003440038000003000200027C0380020005B
:103FE00000001B802440244024401B8000001C0053
:103FF00022C0224022401F80000000000000084034
:10400000000000000000000000000460000000004C
:104010000000000004000A00110020804040090058
:10402000090009000900090000000000404020804C
:1040300011000A000400180020002340240018008A
:1040400000001F802040274029401F400000004002
:1040500007C039000F0001C0004020403FC024408D
:1040600024401B8000001F802040204020403080E2
:10407000000020403FC0204020401F800000204022
:104080003FC024402E4030C0000020403FC02440AC
:104090002E00300000000F001080204022403380AE
:1040A000020020403FC0040004003FC020402040E8
:1040B00020403FC020402040000000602020202001
:1040C0003FC02000200020403FC024400B0030C0F3
:1040D000204020403FC020400040004000C03FC082
:1040E0003C0003C03C003FC0000020403FC00C40EB
:1040F00023003FC020001F802040204020401F8020
:10410000000020403FC024402400180000001F8011
:104110002140214020E01FA0000020403FC024405B
:10412000260019C0004018C024402440224031809D
:104130000000300020403FC0204030000000200040
:104140003F80004000403F80200020003E0001C032
:10415000070038002000380007C03C0007C03800C6
:104160000000204039C0060039C020400000200077
:10417000384007C0384020000000304021C02640B1
:10418000384020C00000000000007FE040204020B8
:104190000000000070000C000380004000000000E0
:1041A000402040207FE00000000000002000400090
:1041B000200000000000001000100010001000108F
:1041C000001000000000400000000000000000009F
:1041D00002800540054003C0004020003FC004406D
:1041E00004400380000000000380044004400640B7
:1041F000000000000380044024403FC00040000055
:1042000003800540054003400000000004401FC03B
:10421000244024402000000002E0055005500650D4
:10422000042020403FC00440040003C000400000C0
:10423000044027C0004000000000001000100410DF
:1042400027E00000000020403FC00140070004C0FC
:104250000440204020403FC000400040000007C014
:10426000040007C0040003C00000044007C004406D
:10427000040003C0004000000380044004400380A9
:104280000000041007F00450044003800000000008
:1042900003800440045007F00010044007C00240AF
:1042A000040004000000000006400540054004C072
:1042B0000000000004001F800440004000000400D3
:1042C00007800040044007C000400400070004C00D
:1042D000018006000400060001C0070001C00600BE
:1042E0000000044006C0010006C0044000000410A5
:1042F000071004E00180060004000000044005C02F
:104300000640044000000000000004007BE0402064
:104310000000000000000000FFF0000000000000AE
:1043200040207BE0040000000000400080004000CE
:1043300020002000400000000000000000000000FD
:104340000000000000000000000000001FCC000C76
:1043500000000000000000000800300060000800BD
:10436000300060000000022003FC1E20022003FC3D
:104370001E200220000000000E1811043FFF1084D0
:104380000C78000000000F0010840F3800C0077880
:1043900018840078000000780F8410C411240E984F
:1043A00000E40084000808006800700000000000BD
:1043B00000000000000000000000000007E01818E6
:1043C000200440020000000040022004181807E00A
:1043D0000000000000000240024001800FF0018058
:1043E0000240024000000080008000800FF8008042
:1043F0000080008000000001000D000E00000000A1
:1044000000000000000000000080008000800080AC
:104410000080008000800000000C000C0000000004
:10442000000000000000000000060018006001808D
:10443000060018002000000007F00808100410040F
:10444000080807F000000000080408041FFC00042E
:1044500000040000000000000E0C10141024104492
:1044600011840E0C000000000C181004110411043B
:1044700012880C700000000000E0032004240824CF
:104480001FFC0024000000001F9810841104110478
:10449000108810700000000007F008881104110453
:1044A00018880070000000001C00100010FC1300B1
:1044B0001C001000000000000E381144108410840D
:1044C00011440E38000000000700088C104410440E
:1044D000088807F00000000000000000030C030C37
:1044E00000000000000000000000000101060000C4
:1044F00000000000000000000080014002200410C5
:1045000008081004000002200220022002200220DD
:1045100002200220000000001004080804100220FD
:1045200001400080000000000E001200100C106C12
:1045300010800F00000003E00C1813E4142417C4CB
:10454000082807D000000004003C03C41C400740BA
:1045500000E4001C000410041FFC110411041104E9
:104560000E880070000003E00C1810041004100402
:1045700010081C10000010041FFC1004100410048C
:10458000080807F0000010041FFC1104110417C4F0
:1045900010040818000010041FFC1104110017C0BB
:1045A00010000800000003E00C1810041004104470
:1045B0001C780040000010041FFC10840080008064
:1045C00010841FFC10040000100410041FFC1004D1
:1045D00010040000000000030001100110011FFE84
:1045E00010001000000010041FFC1104038014646C
:1045F000181C1004000010041FFC10040004000428
:104600000004000C000010041FFC1F0000FC1F0031
:104610001FFC1004000010041FFC0C04030000E049
:1046200010181FFC100007F00808100410041004F4
:10463000080807F0000010041FFC10841080108090
:1046400010800F00000007F0081810241024101C20
:10465000080A07F2000010041FFC1104110011C029
:1046600011300E0C000400000E1C11041084108484
:1046700010441C3800001800100010041FFC100427
:1046800010001800000010001FF8100400040004BF
:1046900010041FF8100010001E0011E0001C007034
:1046A00013801C0010001FC0103C00E01F0000E041
:1046B000103C1FC000001004180C163401C001C0CB
:1046C0001634180C100410001C00130400FC130412
:1046D0001C00100000000804101C10641084130457
:1046E0001C04101800000000000000007FFE4002C3
:1046F000400240020000000030000C000380006017
:10470000001C0003000000004002400240027FFE47
:1047100000000000000000000000200040004000F9
:104720004000200000000001000100010001000124
:1047300000010001000100004000400020000000D6
:104740000000000000000000009801240144014422
:10475000014400FC000410001FFC00880104010457
:10476000008800700000000000700088010401044F
:1047700001040088000000000070008801040104AA
:1047800011081FFC0004000000F80144014401442A
:10479000014400C800000000010401040FFC1104E2
:1047A000110411001800000000D601290129012977
:1047B00001C90106000010041FFC00840100010073
:1047C000010400FC000400000104190419FC0004A9
:1047D00000040000000000000003000101011901B5
:1047E00019FE0000000010041FFC0024004001B46A
:1047F000010C010400000000100410041FFC000460
:10480000000400000000010401FC0104010001FC9F
:104810000104010000FC010401FC0084010001000E
:10482000010400FC0004000000F80104010401047C
:10483000010400F80000010101FF008501040104EA
:10484000008800700000000000700088010401046E
:10485000010501FF00010104010401FC00840104C1
:10486000010001800000000000CC0124012401248B
:1048700001240198000000000100010007F8010474
:10488000010400000000010001F80004000400041D
:10489000010801FC0004010001800170000C0010FF
:1048A00001600180010001F0010C003001C0003006
:1048B000010C01F0010000000104018C0074017082
:1048C000018C01040000010101810171000E00183A
:1048D00001600180010000000184010C01340144E9
:1048E0000184010C00000000000000000000010035
:1048F0003EFC400240020000000000000000FFFFFC
:104900000000000000000000400240023EFC0100E8
:1049100000000000000000006000800080004000F7
:1049200040002000200000C1814001C0804101C042
:10493000804100C1814001C0804100C1814000C16F
:10494000814001C0804101C0804100C1814000C15F
:10495000814001C0804100C1814001C0804101C04F
:10496000804100C1814001C0804100C1814000C13F
:10497000814001C0804100C1814001C0804101C02F
:10498000804100C1814000C1814001C0804101C01F
:10499000804100C1814001C0804100C1814000C10F
:1049A000814001C0804101C0804100C1814000C1FF
:1049B000814001C0804100C1814001C0804101C0EF
:1049C000804100C1814000C1814001C0804101C0DF
:1049D000804100C1814001C0804100C1814000C1CF
:1049E000814001C0804100C1814001C0804101C0BF
:1049F000804100C1814001C0804100C1814000C1AF
:104A0000814001C0804101C0804100C1814000C19E
:104A1000814001C0804100C1814001C0804101C08E
:104A2000804100C1814000C0C101C30302C2C6066B
:104A300007C705C5C404CC0C0DCD0FCFCE0E0ACAD6
:104A4000CB0BC90908C8D81819D91BDBDA1A1EDE26
:104A5000DF1FDD1D1CDC14D4D515D71716D6D212D6
:104A600013D311D1D010F03031F133F3F23236F6E6
:104A7000F737F53534F43CFCFD3DFF3F3EFEFA3A96
:104A80003BFB39F9F83828E8E929EB2B2AEAEE2E26
:104A90002FEF2DEDEC2CE42425E527E7E62622E296
:104AA000E323E12120E0A06061A163A3A26266A6E6
:104AB000A767A56564A46CACAD6DAF6F6EAEAA6A56
:104AC0006BAB69A9A86878B8B979BB7B7ABABE7EA6
:104AD0007FBF7DBDBC7CB47475B577B7B67672B256
:104AE000B373B17170B050909151935352929656E6
:104AF0005797559594549C5C5D9D5F9F9E5E5A9A16
:104B00009B5B99595898884849894B8B8A4A4E8EA5
:104B10008F4F8D4D4C8C4484854587474686824215
:104B20004383418180400000484B00080000002082
:104B30009C00000028010008E44B00089C000020B5
:104B4000840B000044010008010000000000102751
:104B500000000000000000000000B0072C012C0144
:104B60000F00E1000000803F0000A0400000A041D5
:104B70000000803F00002041000000000000000015
:104B800000000102030401020304060708090204ED
:104B90000608000000000000000000000000000007
:104BA0000000000000000000000000000000000005
:104BB00000000000000000000000000000000000F5
:104BC00000000000000000000000000000000000E5
:104BD00000000000000000000000000000000000D5
:044BE00000000000D1
:04000005080000ED02
:00000001FF
